:020000040800F2
:10000000B8080020450100082D1500082F1500082C
:1000100033150008371500083B15000800000000E4
:100020000000000000000000000000003F15000874
:1000300041150008000000004315000845150008A0
:100040005F0100085F0100085F0100085F01000810
:100050005F0100085F010008651500085F010008E6
:100060005F0100085F0100085F0100085F010008F0
:100070005F0100085F0100085F0100085F010008E0
:100080005F0100085F0100085F0100085F010008D0
:100090005F0100085F0100085F0100085F010008C0
:1000A0005F0100085F0100085F0100085F010008B0
:1000B0005F0100085F0100085F0100085F010008A0
:1000C0005F0100085F0100085F0100085F01000890
:1000D0005F0100084D1500085F0100085F0100087E
:1000E000831500085F0100085F0100085F01000838
:1000F0005F0100085F0100085F0100085F01000860
:100100005F0100085F0100085F0100085F0100084F
:100110005F0100085F0100085F0100085F0100083F
:100120005F0100085F0100085F0100085F0100082F
:10013000DFF80CD001F014FE004800474D14000811
:10014000B80800200648804706480047FEE7FEE75B
:10015000FEE7FEE7FEE7FEE7FEE7FEE7FEE7FEE777
:1001600047020008310100080CB500200190009002
:100170006C48006840F480306A49086000BF6948F4
:10018000006800F4003000900198401C0190009835
:1001900018B90198B0F5A06FF1D16248006800F479
:1001A000003010B10120009001E000200090009884
:1001B000012843D15C48006840F010005A490860AB
:1001C0000846006820F0030008600846006840F018
:1001D0000200086053484068524948600846406839
:1001E00048600846406840F48060486008464068BF
:1001F00020F47C1048600846406840F4E8104860ED
:100200000846006840F08070086000BF45480068FC
:1002100000F000700028F9D04248406820F0030048
:10022000404948600846406840F00200486000BF0E
:100230003C48406800F00C000828F9D10CBD10B50E
:10024000FFF792FF10BD10B53648006840F001007E
:1002500034490860084640683449084031494860DC
:1002600008460068324908402E4908600846006880
:1002700020F4802008600846406820F4FE004860B2
:100280004FF41F008860FFF7DAFF4FF00060294944
:10029000086010BD10B5002100200022214B5B68D2
:1002A00003F00C0121B1042906D0082928D107E068
:1002B000214B224C236027E01F4B204C236023E07E
:1002C000184B5B6803F47010164B5B6803F48032C4
:1002D000022303EB904022B9194B4343174C236090
:1002E0000DE0104B5B6803F4003323B1144B434320
:1002F000124C236003E0104B4343104C236003E097
:100300000D4B0E4C236000BF00BF064B5B68C3F370
:1003100003130C4CE15C094B1B68CB40074C23607A
:1003200010BD000000100240002002400000FFF855
:10033000FFFFF6FE08ED00E000127A00000000204A
:1003400000093D000400002031490143314A116099
:10035000704770B5002100230F22C47804B32D4CE0
:10036000246804F4E064C4F5E064210AC1F10403E4
:10037000CA40447804FA03F1847814402143090107
:10038000254C0678A155047804F01F050124AC40E3
:1003900005786D11AD0005F1E025C5F8004109E0D3
:1003A000047804F01F050124AC401C4D067876113A
:1003B00045F8264070BD1A4A0A400243154B1B1FE0
:1003C0001A60704739B1134A121D12680243114B6B
:1003D0001B1D1A6006E00F4A121D126882430D4B66
:1003E0001B1D1A607047042808D14FF0E0210969ED
:1003F00041F004014FF0E022116107E04FF0E021ED
:10040000096921F004014FF0E022116170470000FA
:100410000000FA050CED00E000E400E080E100E0FF
:1004200080FFFF1F002044490860091D0860091D66
:100430000860091D086041483F4914310860704751
:1004400000213D498279002A3AD00A4612680368A1
:100450009A430B461A600A1D126803689A430B1DE3
:100460001A60027911440A6803681A430A60324A22
:100470000832126803689A432F4B08331A601A1D1A
:10048000126803689A432C4B0C331A604279102A85
:100490000ED11A1F126803681A43274B08331A60DB
:1004A0001A1D126803681A43234B0C331A600DE0BF
:1004B0002149427911440A6803681A430A6005E039
:1004C000027911440A6803689A430A607047002160
:1004D000016001710C214171002181717047164941
:1004E000103109680143144A103211607047014607
:1004F0000020114A143212680A400AB1012000E0BB
:10050000002070470C4914310860704701460020F4
:100510000022094B1B6803EA0102074B14331B68D6
:100520000B4013B10AB1012000E0002070470249DE
:10053000143108607047000000040140FFFF0F0005
:1005400010B50446CC48844208D10121042000F0B3
:100550002FFD0021042000F02BFD46E0C748844217
:1005600008D10121082000F023FD0021082000F01F
:100570001FFD3AE0C248844208D10121102000F05A
:1005800017FD0021102000F013FD2EE0BD4884422D
:1005900008D10121202000F00BFD0021202000F0D7
:1005A00007FD22E0B848844208D10121402000F034
:1005B000FFFC0021402000F0FBFC16E0B348844221
:1005C00008D10121802000F0F3FC0021802000F000
:1005D000EFFC0AE0AE48844207D10121801500F00B
:1005E000E7FC0021A01500F0E3FC10BD10B50121CF
:1005F000084600F0DDFC0021012000F0D9FC10BD10
:100600002DE9F041024600250026002000230024A9
:10061000002791F803C00CF00F0591F803C00CF00F
:10062000100CBCF1000F03D091F802C04CEA050594
:1006300091F800C0BCF1000F31D0146800202BE00D
:100640004FF0010C0CFA00F3B1F800C00CEA0306FD
:100650009E4220D183004FF00F0C0CFA03F7BC43ED
:1006600005FA03FC4CEA040491F803C0BCF1280F1E
:1006700006D14FF0010C0CFA00FCC2F814C00AE0DD
:1006800091F803C0BCF1480F05D14FF0010C0CFAF2
:1006900000FCC2F810C0401C0828D1D31460B1F887
:1006A00000C0BCF1FF0F34DD546800202EE000F1E3
:1006B000080C4FF0010808FA0CF3B1F800C00CEA7E
:1006C00003069E4221D183004FF00F0C0CFA03F772
:1006D000BC4305FA03FC4CEA040491F803C0BCF1E6
:1006E000280F05D100F1080C08FA0CF8C2F81480A4
:1006F00091F803C0BCF1480F07D100F1080C4FF08E
:10070000010808FA0CF8C2F81080401C0828CED363
:100710005460BDE8F0814FF6FF71018002218170C5
:100720000421C17070470246002093680B400BB152
:10073000012000E0002070470146886880B27047C1
:1007400002460020D3680B400BB1012000E00020DE
:1007500070470146C86880B27047016170474161C7
:1007600070470AB1016100E041617047C1607047A4
:100770004FF480320A4382618161826182698269B9
:10078000704702460020434B18684FF680731840AC
:1007900040EA021008433F4B186070473E49C86169
:1007A0007047F0B50A46002300240021002500F020
:1007B0000046B6F1004F02D1364EF16901E0354EE8
:1007C0007168C0F3034583B200F44016B6F5401FCC
:1007D00008D121F070612F4E766826F070662D4F9B
:1007E0007E6012E000F48016B6F5801F06D1032665
:1007F00006FA05F4A14341F0706106E0460D3601AA
:1008000003FA06F6B14341F0706122B1460D36019C
:1008100003FA06F6314300F00046B6F1004F02D16C
:100820001C4EF16101E01B4E7160F0BD30B500223D
:100830008B071C0F0F2303FA04F2164B08338C109E
:1008400053F824309343134C08348D1044F825306A
:1008500023468C1053F824308C07240F00FA04F43C
:1008600023430C4C08348D1044F8253030BD0A4920
:10087000DC3108607047000000080140000C0140B6
:10088000001001400014014000180140001C01400C
:1008900000200140000001400000204210B5044645
:1008A000F748844209D10121480500F08EFB002160
:1008B0004FF4001000F089FB08E00121880500F0EA
:1008C00084FB00214FF4800000F07FFB10BD2DE978
:1008D000F04385B004460D460026B1460427DFF8F4
:1008E000A483A6884FF6C0700640684600F0D9FA87
:1008F000DDF80880E448B8FBF0F01FFA80F946EA1A
:100900000906A68020884FF6FE7108402080002648
:10091000DE49286888420CD828684000B8FBF0F00F
:1009200087B2042F00DA04273E4309F10100208436
:1009300027E0E8884BF6FF71884206D1286800EB73
:100940004000B8FBF0F087B209E0286800EBC00176
:1009500001EB0010B8FBF0F087B247F48047C7F313
:100960000B0008B947F0010747F4004006434FF475
:10097000967009FB00F04FF47A7190FBF1F0401C87
:100980002084A683208840F00100208026884FF62E
:10099000F5300640A8886989084306432680A8895F
:1009A00029890843208105B0BDE8F08341F28831F0
:1009B0000160002181804BF6FF71C180002101811F
:1009C00041814FF480418181704721B1028842F01A
:1009D0000102028004E002884FF6FE731A40028092
:1009E000704721B1828842F40062828004E08288EC
:1009F0004FF2FF731A408280704721B1828842F41F
:100A00008052828004E082884EF6FF731A40828012
:100A1000704721B1028842F48072028004E00288AB
:100A20004FF6FF631A400280704721B1028842F4FA
:100A30000072028004E002884FF6FF531A400280E1
:100A4000704721B1028842F48062028004E002888B
:100A50004FF6FF331A40028070470A460021818911
:100A60004FF60173194002F0FE031943818170476C
:100A700021B1828942F00102828104E082894FF62D
:100A8000FE731A408281704721B1028842F0400211
:100A9000028004E002884FF6BF731A40028070475C
:100AA0001AB183880B43838002E083888B43838061
:100AB0007047018270470146088AC0B2704712B180
:100AC00041F0010102E04FF6FE73194001827047C8
:100AD00008B502460020009000920098084400905B
:100AE0000098008808BD21B1028842F400420280CB
:100AF00003E00288C2F30E0202807047B1F5006F76
:100B000004D1028842F40062028004E002884FF2BD
:100B1000FF731A4002807047B1F5005F04D102886C
:100B200042F40052028004E002884DF6FF731A403E
:100B30000280704721B1028842F48052028004E0B2
:100B400002884EF6FF731A4002807047B1F5006FBD
:100B500004D1028842F40062028004E002884FF26D
:100B6000FF731A400280704721B1028842F02002D0
:100B7000028004E002884FF6DF731A40028070475B
:100B80000146088B0012704721B1028842F0100222
:100B9000028004E002884FF6EF731A40028070472B
:100BA00021B9028842F08002028004E002884FF6F8
:100BB0007F731A4002807047B1F5804F05D0828B59
:100BC0004BF6FF731A40828303E0828B42F480422B
:100BD0008283704770B50246002400250023002060
:100BE000958A138B1B0445EA030626F07F4404EA2A
:100BF00001068E4201D1012000E0002070BD10B539
:100C000001460020002300228B8A0A8B120443EA4B
:100C1000020424F07F4010BD0CB5024600200023E2
:100C20000193009300920B0F019321F07F41019BF0
:100C30001BB1009B1433009303E0090C009B183395
:100C40000093009B1B680B400BB1012000E00020CB
:100C50000CBD002221F07F42D3438382704730B520
:100C6000024600200023948801F0E06504EA154361
:100C700021F07F41948A0C4054B14BB1012008E02F
:100C80000054004000127A0040420F00A08601008C
:100C9000002030BD002221F07F42D3438382704781
:100CA000DF48006840F00100DD4908600846406800
:100CB000DC490840DA49486008460068DA490840DB
:100CC000D74908600846006820F48020086008467C
:100CD000406820F4FE0048604FF41F0088607047B1
:100CE000CF49096821F48031CD4A11601146096865
:100CF00021F480211160B0F5803F03D0B0F5802F42
:100D00000ED106E0C649096841F48031C44A116039
:100D100007E0C349096841F4A021C14A116000E01D
:100D200000BF00BF704710B501460022002300201D
:100D30004A11012A02D1BA4C236806E0022A02D1E4
:100D4000B74C236A01E0B64C636A01F01F0201242C
:100D500094401C400CB1012000E0002010BD38B5CB
:100D6000002000900024002500BF3120FFF7DBFFAA
:100D700005460098401C00900098B0F5A06F01D087
:100D8000002DF2D03120FFF7CEFF08B1012400E0A2
:100D90000024204638BD01460020A14A106820F0FA
:100DA000F80040EAC10010607047A0490860704731
:100DB000024600209A4B586820F47C1042EA010356
:100DC0001843974B5860704798490866704701462A
:100DD0000020934A506820F0030008435060704799
:100DE0008F48406800F00C007047014600208C4A94
:100DF000506820F0F0000843506070470146002022
:100E0000874A506820F4E06008435060704701460C
:100E10000020834A506820F4605040EAC1005060CE
:100E2000704729B17E4A527A02437D4B5A7204E0E0
:100E30007B4A527A82437A4B5A7270477B49D83147
:100E40000860704701460020754A506820F4404011
:100E50000843506070470021714A20321170704A77
:100E600082F82010012802D004280AD104E00121D0
:100E70006B4A2032117005E00521694A2032117059
:100E800000E000BF00BF70476949086070476449CF
:100E9000096A0143624A1162704765494439086032
:100EA000704730B500210022002400235C4D6D689E
:100EB00005F00C0121B1042905D0082923D105E052
:100EC0005C4D056022E05B4D05601FE0544D6D6890
:100ED00005F47012524D6D6805F48034022505EB5F
:100EE00092421CB9544D554305600BE04C4D6D6862
:100EF00005F400351DB1504D5543056002E04D4DE0
:100F00005543056002E04B4D056000BF00BF444DF6
:100F10006D6805F0F0010909484D6B5C0568DD401E
:100F200045603F4D6D6805F4E061090A434D6B5C17
:100F30004568DD4085603A4D6D6805F46051C90A29
:100F40003E4D6B5C4568DD40C560354D6D6805F410
:100F50004041890B3A4D6B5CC568B5FBF3F5056103
:100F600030BD29B12E4A526902432D4B5A6104E02B
:100F70002B4A526982432A4B5A61704729B1284A49
:100F800092690243264B9A6104E0254A92698243A2
:100F9000234B9A61704729B1214AD2690243204B01
:100FA000DA6104E01E4AD26982431D4BDA61704760
:100FB00029B11B4AD2680243194BDA6004E0184A8F
:100FC000D2688243164BDA60704729B1144A12691D
:100FD0000243134B1A6104E0114A12698243104B19
:100FE0001A61704712494039086070470F49C86458
:100FF00070470B49C87170470948406A40F08070DB
:1010000007494862704701460020054A92680A4035
:101010000AB1012000E00020704701498872704742
:10102000001002400000FFF8FFFFF6FE0000424201
:101030008004424200127A0000093D0014000020A2
:101040002400002010B50446FB48844209D1012148
:101050008803FFF7ADFF00214FF48040FFF7A8FFA2
:1010600032E0F648844209D101214804FFF7ADFF80
:1010700000214FF40030FFF7A8FF25E0F04884423C
:1010800009D101218804FFF7A0FF00214FF480203F
:10109000FFF79BFF18E0EB48844209D10121C80407
:1010A000FFF793FF00214FF40020FFF78EFF0BE0C6
:1010B000E548844208D101210805FFF786FF002199
:1010C0004FF48010FFF781FF10BD2DE9F04786B087
:1010D00005460E460024A24600BFA1460027B0895F
:1010E00000B100BF2F462C8A4CF6FF700440F088F8
:1010F00004432C82AC894EF6F3100440B088318949
:101100000843718908430443AC81AC8A4FF6FF4021
:101110000440B0890443AC8201A8FFF7C2FEC64870
:10112000874202D1DDF810A001E0DDF80CA0A8890B
:1011300000F4004040B10AEBCA0000EB0A1031682D
:101140004900B0FBF1F807E00AEBCA0000EB0A1017
:1011500031688900B0FBF1F86420B8FBF0F00401BD
:101160002009642101FB1089A88900F4004040B1E6
:10117000322000EBC900B0FBF1F000F0070004439F
:1011800008E0322000EB09106421B0FBF1F000F020
:101190000F0004432C8106B0BDE8F0874FF41651D0
:1011A000016000218180C18001810C2141810021E9
:1011B0008181704710B502460020108A4FF2FF036C
:1011C00018400B884C8823438C882343CC882343C6
:1011D0001843108210BD0021018041808180C180B0
:1011E000704721B1828942F40052828104E08289F1
:1011F0004DF6FF731A4082817047F0B50346002414
:1012000000260025002040F66A17B94200D100BF31
:101210001846C1F3421401F01F06012707FA06F52C
:10122000012C01D10C3004E0022C01D1103000E07F
:1012300014301AB107682F43076002E00768AF4314
:101240000760F0BD1AB1838A0B43838202E0838A70
:101250008B4383827047028A4FF6F0731A400282F2
:10126000028A0A430282704782894FF2FF731A4052
:10127000828182890A438281704721B1828942F04A
:101280000202828104E082894FF6FD731A40828156
:101290007047028A4FF6DF731A400282028A0A43BD
:1012A0000282704721B1028A42F48042028204E045
:1012B000028A4BF6FF731A4002827047C1F308029C
:1012C0008280704701468888C0F308007047818992
:1012D00041F0010181817047028BD2B20283028BFF
:1012E00042EA012202837047028B02F47F420283AA
:1012F000028B0A430283704721B1828A42F02002A6
:10130000828204E0828A4FF6DF731A40828270473D
:1013100021B1828A42F01002828204E0828A4FF672
:10132000EF731A408282704721B1828A42F008022C
:10133000828204E0828A4FF6F7731A4082827047F5
:1013400021B1828942F40042828103E08289C2F3A2
:101350000E028281704721B1828A42F40062828249
:1013600004E0828A4FF2FF731A4082827047828AB9
:101370004FF6FB731A408282828A0A438282704748
:1013800021B1828A42F00202828204E0828A4FF610
:10139000FD731A408282704702460020B1F5007F3B
:1013A00000D100BF13880B400BB1012000E00020EA
:1013B000704701F40072B2F5007F00D100BFCA434C
:1013C0000280704770B502460024002300250020EB
:1013D00040F66A16B14200D100BFC1F3421501F0D8
:1013E0001F03012606FA03F3012D02D1968933402B
:1013F00006E0022D02D1168A334001E0968A33407E
:101400000C12012606FA04F41688344013B10CB10C
:10141000012000E0002070BD10B50022002340F63E
:101420006A14A14200D100BF0A1201249440A3B261
:10143000DC43048010BD000000380140004400403F
:1014400000480040004C004000500040002500F0E3
:1014500025FB00F03EFC00F064FB20202D490860D5
:10146000012008600220091D086000F0C1FA00F0A8
:10147000ADF800F033F900F0BBF94AE0002000F0CD
:101480009AF925480078D0B9202022490860012027
:10149000091D08600220091F0860002409E01621C8
:1014A00001EB0411C8B22246022100F02EFA601CA2
:1014B000C4B2042CF3DB012000F0D2FA1DE0164880
:1014C0000078012819D120201249091D0860012047
:1014D000091F08600220086010480078632802D1C4
:1014E00000F086F909E002230DA20421002000F09B
:1014F0009AF9012000F0B4FA6D1C0A2D09D10648B2
:101500000078012805D1002500F072F9022000F0D2
:10151000A7FAB3E7100C01402800002029000020A2
:10152000726F626F6D61737465720000704700BF07
:10153000FEE700BFFEE700BFFEE700BFFEE7704723
:101540007047704710B500F097FA10BD10B51948F4
:1015500000F0CEFC184908700846017817A000F08A
:101560003DFC10BD10B50120FEF7D0FF40B115487D
:10157000006880F02000134908600120FEF7D7FFC3
:1015800010BD10B54FF40050FEF7C0FF88B10E48F3
:10159000007818B901200C49087006E00A48007864
:1015A000012802D10020084908704FF40050FEF7CE
:1015B000BEFF10BDB00400202900002063683D2557
:1015C000630A00000C0C01402800002000B585B023
:1015D00001214805FFF7DFFC01210820FFF7CEFCC1
:1015E0004020ADF8000003208DF802001C208DF88B
:1015F00003006946F648FFF703F88020ADF80000C5
:101600006946F348FEF7FCFF0020ADF808004BF6F2
:10161000FF70ADF80A007820ADF80C004FF4806040
:10162000ADF80E000001ADF81000EA48019001A9E4
:10163000E948FFF74CF90121E748FFF7C6F905B083
:1016400000BD70B504460D4600BF4FF40031E248BE
:10165000FFF7E2FA0028F8D10121DF48FFF7D9F9B6
:1016600000BFDE49DC48FFF7B5FA0028F9D00022B8
:101670007821D948FFF723FA00BFD949D648FFF7A8
:10168000A9FA0028F9D02146D348FFF712FA00BF83
:10169000D349891CD048FFF79DFA0028F8D0294685
:1016A000CD48FFF706FA00BFCD49891CCA48FFF7AD
:1016B00091FA0028F8D00121C748FFF7B6F970BDAC
:1016C00010B5044621460020FFF7BBFF10BD10B542
:1016D000044621464020FFF7B4FF10BD10B501209D
:1016E00000F0BEF9AE20FFF7EBFF2020FFF7E8FF88
:1016F0001020FFF7E5FFB020FFF7E2FFC820FFF75B
:10170000DFFF0020FFF7DCFF1020FFF7D9FF4020AC
:10171000FFF7D6FF8120FFF7D3FFFF20FFF7D0FFB1
:10172000A120FFF7CDFFA620FFF7CAFFA820FFF7F3
:10173000C7FF3F20FFF7C4FFA420FFF7C1FFD3205E
:10174000FFF7BEFF0020FFF7BBFFD520FFF7B8FF74
:10175000F020FFF7B5FFD920FFF7B2FF2220FFF7F7
:10176000AFFFDA20FFF7ACFF1220FFF7A9FFDB2065
:10177000FFF7A6FF2020FFF7A3FF8D20FFF7A0FFB4
:101780001420FFF79DFFAF20FFF79AFF10BD70B543
:1017900004460D4605F1B001C8B2FFF791FF1021D4
:1017A00041EA1410FFF78CFF04F00F0141F0010033
:1017B000FFF786FF70BD70B50646002415E004F102
:1017C000B001C8B2FFF77CFF0020FFF779FF1020BF
:1017D000FFF776FF002504E03046FFF778FF681C2E
:1017E000C5B2802DF8DB601CC4B2082CE7DB70BDED
:1017F00010B50020FFF7DFFF10BD10B58D20FFF7FB
:101800005FFF1420FFF75CFFAF20FFF759FF10BD0B
:1018100010B58D20FFF754FF1020FFF751FFAE20C9
:10182000FFF74EFF10BD2DE9F047064689461746E3
:101830009A464FF0000800240025BAF1010F03D0AA
:10184000BAF1020F5ED125E020E0785D203800F08B
:10185000FF087E2E04DD002609F1010000F0FF09DB
:1018600049463046FFF793FF002409E008EB4801A2
:101870005C4A02EB4101085DFFF729FF601CC4B21E
:10188000062CF3DBB01DC6B2681CC5B2785D00281B
:10189000DBD137E032E0785D203800F0FF08782EA9
:1018A00004DD002609F1010000F0FF094946304639
:1018B000FFF76DFF002407E004EB08114A4A505C73
:1018C000FFF705FF601CC4B2082CF5DB09F101002D
:1018D000C1B23046FFF75BFF002408E004EB0811BB
:1018E0000831414A505CFFF7F2FE601CC4B2082C7C
:1018F000F4DB06F10800C6B2681CC5B2785D0028AA
:10190000C9D100BF00BFBDE8F0872DE9F041804696
:101910000E46174600247D0131464046FFF737FF4B
:1019200000BF06E03149485DFFF7D1FE6D1C601C29
:10193000C4B2102CF6DB701CC1B24046FFF727FF83
:10194000002406E02949485DFFF7C1FE6D1C601CBC
:10195000C4B2102CF6DBBDE8F0812DE9F05F06463D
:101960000F4690461C46DDF828A04FF0000BE1170B
:1019700004EB5171C910A4EBC10131B92046E11744
:1019800004EB5171C1F3C70506E02046E11704EBF3
:101990005171C910491CCDB23D4614E0294630466C
:1019A000FFF7F5FEB1460AE059460BF1010B1AF8B4
:1019B0000100FFF78CFE09F1010000F0FF09C145AD
:1019C000F2DB681CC5B2A542E8DBBDE8F09F000071
:1019D000000C0140801A0600005400400100030082
:1019E00082000700F41E00081C2100082A000020C5
:1019F00030B5264800684FF47A72B0FBF2F1B1F1CD
:101A0000807F01D301201DE021F07F40401E4FF078
:101A1000E022506150170F22002807DA13071D0E2D
:101A20001B4B00F00F04241F1D5503E013071C0E71
:101A3000184B1C5400BF00204FF0E022906107209B
:101A40001061002008B100BFFEE730BD01B51249AA
:101A50000098086000BF104800680028FBD108BD4E
:101A600010B50246002404E04FF47A70FFF7EEFF51
:101A7000521E9442F8D310BD0748006820B10648B2
:101A80000068401E04490860704700000000002004
:101A900018ED00E000E400E0AC04002008B50121EE
:101AA0000820FFF76BFA2020ADF8000010208DF819
:101AB000030003208DF8020069460F48FEF7A0FDE1
:101AC0000120ADF8000069460B48FEF799FD0220A1
:101AD000ADF8000069460848FEF792FD202106484F
:101AE000FEF73BFE01210448FEF737FE02210248C3
:101AF000FEF733FE08BD0000000C014008B54FF4AE
:101B0000A060FEF721FC25208DF8000001208DF853
:101B100001008DF802008DF803006846FEF719FCFD
:101B200008BD00B585B001210420FFF727FA012187
:101B30008803FFF723FA4FF40070ADF81000182067
:101B40008DF8130003208DF8120004A95248FEF707
:101B500057FD4FF48060ADF8100004208DF813009D
:101B600004A94D48FEF74CFD4FF4E13000900020F1
:101B7000ADF80400ADF80600ADF80800ADF80C00B3
:101B80000C20ADF80A0069464448FFF79EFAFFF7BB
:101B9000B5FF012240F225514048FFF72EFB0121FD
:101BA0003E48FFF71EFB05B000BD70B504460D466C
:101BB00029462046FFF782FB00BF80212046FFF721
:101BC000EBFB0028F9D070BD2DE9F04107460D462A
:101BD0001646002405E0295D3846FFF7E6FF601C45
:101BE000C4B2B442F7DB00BF40213846FFF7D4FB54
:101BF0000028F9D0BDE8F08170B506460C460025F6
:101C000000BF615D3046FFF7D0FF6D1C605D0028AE
:101C1000F7D100BF40213046FFF7BEFB0028F9D0C6
:101C200070BD2DE9F04105460C46260AE7B2314663
:101C30002846FFF743FB00BF80212846FFF7ACFB97
:101C40000028F9D039462846FFF738FB00BF80212D
:101C50002846FFF7A1FB0028F9D0BDE8F08170B558
:101C600004460D46E1B20D48FFF728FB00BF802176
:101C70000A48FFF791FB0028F9D0204670BD10B547
:101C8000044600BF20210548FFF786FB0028F9D055
:101C90000248FFF717FB10BD000801400038014063
:101CA00008B54FF4C060FEF74FFB06208DF800002A
:101CB00028208DF8000001208DF801008DF8020029
:101CC0008DF803006846FEF744FB6846FEF741FBCB
:101CD00008BD0EB501210520FFF750F9FFF7E0FF21
:101CE0000120ADF8080004208DF80B0002A91A4865
:101CF000FEF786FC00210846FEF798FD01200090C3
:101D000000208DF8040008208DF8050001208DF8D2
:101D100006006846FEF794FB4FF40050ADF808004B
:101D200004208DF80B0002A90C48FEF769FC0D2178
:101D30000220FEF77BFD4FF40050009000208DF84C
:101D400004000C208DF8050001208DF8060068467F
:101D5000FEF776FB0EBD00000008014000100140B8
:101D6000064C074D06E0E06840F0010394E80700E8
:101D700098471034AC42F6D3FEF7DEF90C27000882
:101D80002C27000870B58C1810F8015B15F00703BC
:101D900001D110F8013B2A1106D110F8012B03E004
:101DA00010F8016B01F8016B5B1EF9D12B0705D40C
:101DB0000023521E0DD401F8013BFAE710F8013B55
:101DC000CB1A921C03E013F8015B01F8015B521E71
:101DD000F9D5A142D8D3002070BD00000FB4054B47
:101DE00010B503A9044A029800F017F810BC5DF87A
:101DF00014FB00005F1C0008B404002002E008C8C7
:101E0000121F08C1002AFAD170477047002001E074
:101E100001C1121F002AFBD170472DE9F84F9946E6
:101E2000924688460546002706E025280AD05146F6
:101E30004A4690476D1C7F1C28780028F5D138460B
:101E4000BDE8F88F002315F8011F18462E2915D17B
:101E500015F8011F04232A290DD06FF02F022978CD
:101E6000A1F13004092C09D800EB800002EB4000FE
:101E700008446D1CF3E758F8040B6D1C2A78002AFF
:101E8000DDD0632A07D0732A0FD0104651464A4648
:101E900090477F1C2AE018F8042B8DF800200021C1
:101EA0008DF801106E46012103E058F8046B4FF0E5
:101EB000FF315A074FF0000401D409E0641C84424A
:101EC0000BDA8C42FADB325D002AF7D105E0641CA4
:101ED0008C42FCDB305D0028F9D1274404E016F881
:101EE000010B51464A469047641EF8D26D1CA3E789
:101EF000FFF7C5BE0000000000000000002F00003A
:101F000000000700070000147F147F1400242A7FBC
:101F10002A1200626408132300364955225000003B
:101F20000503000000001C224100000041221C00AB
:101F30000014083E08140008083E0808000000A02D
:101F40006000000808080808000060600000002029
:101F500010080402003E5149453E0000427F400007
:101F6000004261514946002141454B31001814128D
:101F70007F10002745454539003C4A49493000015A
:101F80007109050300364949493600064949291EA9
:101F9000000036360000000056360000000814220B
:101FA000410000141414141400004122140800020B
:101FB0000151090600324959513E007C1211127C30
:101FC000007F49494936003E41414122007F41415D
:101FD000221C007F49494941007F09090901003E4F
:101FE0004149497A007F0808087F0000417F41008D
:101FF000002040413F01007F08142241007F404003
:102000004040007F020C027F007F0408107F003EEA
:102010004141413E007F09090906003E4151215ED0
:10202000007F091929460046494949310001017FCD
:102030000101003F4040403F001F2040201F003F63
:102040004038403F00631408146300070870080715
:1020500000615149454300007F41410000552A5528
:102060002A55000041417F000004020102040040A3
:1020700040404040000001020400002054545478C5
:10208000007F4844443800384444442000384444E5
:10209000487F00385454541800087E090102001883
:1020A000A4A4A47C007F080404780000447D4000C0
:1020B000004080847D00007F102844000000417FA4
:1020C0004000007C04180478007C08040478003880
:1020D0004444443800FC242424180018242418FC08
:1020E000007C0804040800485454542000043F4471
:1020F0004020003C4040207C001C2040201C003C34
:102100004030403C004428102844001CA0A0A07C83
:10211000004464544C4414141414141400000000BB
:10212000000000000000000000000000000000F8B7
:1021300000000000000000333000000000100C061A
:10214000100C0600000000000000000040C07840B5
:10215000C0784000043F04043F040400007088FC81
:1021600008300000001820FF211E0000F008F000D9
:10217000E018000000211C031E211E0000F008884A
:10218000700000001E2123241927211010160E00B4
:10219000000000000000000000000000000000E05F
:1021A0001804020000000007182040000002041874
:1021B000E00000000040201807000000404080F0D0
:1021C000804040000202010F01020200000000F006
:1021D000000000000101011F0101010000000000DA
:1021E0000000000080B0700000000000000000004F
:1021F00000000000000101010101010100000000D8
:10220000000000000030300000000000000000006E
:1022100080601804006018060100000000E010084B
:102220000810E000000F102020100F00001010F820
:10223000000000000020203F20200000007008085F
:1022400008887000003028242221300000300888DF
:10225000884830000018202020110E000000C02007
:1022600010F8000000070424243F240000F8088828
:10227000880808000019212020110E0000E01088B5
:1022800088180000000F112020110E0000380808E7
:10229000C83808000000003F0000000000708808F7
:1022A00008887000001C222121221C0000E0100878
:1022B0000810E0000000312222110F00000000C0D1
:1022C000C00000000000003030000000000000806E
:1022D000000000000000806000000000000080405E
:1022E0002010080000010204081020004040404077
:1022F00040404000040404040404040000081020CA
:10230000408000000020100804020100007048080E
:102310000808F0000000003036010000C030C82876
:10232000E810E0000718272423140B000000C03831
:10233000E0000000203C23020227382008F88888AB
:1023400088700000203F202020110E00C0300808B7
:1023500008083800071820202010080008F808088E
:102360000810E000203F202020100F0008F8888887
:10237000E8081000203F20202320180008F8888853
:10238000E8081000203F200003000000C0300808CB
:102390000838000007182020221E020008F8080054
:1023A0000008F808203F210101213F20000808F81B
:1023B000080800000020203F20200000000008083E
:1023C000F8080800C08080807F00000008F888C0FE
:1023D00028180800203F20012638200008F80800AF
:1023E00000000000203F20202020300008F8F800E6
:1023F000F8F80800203F003F003F200008F830C0F8
:102400000008F808203F200007183F00E0100808E7
:102410000810E0000F10202020100F0008F8080816
:102420000808F000203F210101010000E010080829
:102430000810E0000F18242438504F0008F888884E
:1024400088887000203F2000030C3020007088082E
:10245000080838000038202121221C00180808F83C
:10246000080818000000203F2000000008F80800BD
:102470000008F808001F202020201F00087888008E
:1024800000C83808000007380E010000F80800F8FE
:102490000008F800033C0700073C030008186880A8
:1024A0008068180820302C03032C30200838C8001E
:1024B000C83808000000203F20000000100808086D
:1024C000C83808002038262120201800000000FE0F
:1024D000020202000000007F40404000000C30C0BB
:1024E00000000000000000010638C00000020202E7
:1024F000FE000000004040407F0000000000040299
:1025000002020400000000000000000000000000C3
:1025100000000000808080808080808000020204B3
:1025200000000000000000000000000000008080AB
:10253000808000000019242222223F2008F8008019
:1025400080000000003F112020110E0000000080DC
:1025500080800000000E112020201100000000806B
:102560008088F800000E112020103F20000080809D
:1025700080800000001F222222221300008080F0B1
:10258000888888180020203F2020000000008080DC
:1025900080808000006B94949493600008F8008021
:1025A00080800000203F210000203F20008098987C
:1025B000000000000020203F2020000000000080DC
:1025C0009898000000C08080807F000008F800001C
:1025D00080808000203F24022D302000000808F871
:1025E000000000000020203F20200000808080802C
:1025F00080808000203F20003F20003F80800080BE
:1026000080800000203F210000203F2000008080CB
:1026100080800000001F202020201F00808000807C
:102620008000000080FFA12020110E00000000802B
:1026300080808000000E112020A0FF80808080001C
:102640008080800020203F21200001000000808049
:10265000808080000033242424241900008080E03E
:10266000808000000000001F20200000808000000B
:1026700000808000001F202020103F2080808000EC
:102680000080808000010E300806010080800080FC
:10269000008080800F300C030C300F000080800021
:1026A000808080000020312E0E312000808080004C
:1026B0000080808080818E701806010000808080FC
:1026C000808080000021302C22213000000000009A
:1026D000807C020200000000003F4040000000003B
:1026E000FF00000000000000FF0000000002027C6C
:1026F000800000000040403F000000000006010193
:102700000202040400000000000000002C27000862
:1027100000000020B8040000841D0008B028000854
:10272000B8040020000400000C1E00081184A24A16
:1027300004680901020304060708090C6910250250
:10274000040608171010D0FF901046FE020202FE89
:1027500013040312FF3483601F353F4040781BFE93
:1027600022014905511A072B2B02FF05620732E0AF
:1027700032FF242040801A0841114C40807F7B1298
:102780000E1C104C44012B45C6061444540C3B400F
:10279000400A1A7F0D2564444040180A03050911B8
:1027A000FF118905C34812F072F8073D4428FF1154
:1027B000AA44700B830138448292927401831E7C78
:1027C00044C7017D01990529B729A89902818A0189
:1027D0000B013669419949FA0101A12A4001212AD8
:1027E0006D01212A6001791501642ADB01091507B1
:1027F0002ADA01212AD801212AC0010915072A80D5
:102800000101352A06010918071CE66620076A86B9
:10281000157A861C2A8601180A8080868606868696
:10282000C0C00C0E1C0606D030764D2907013113AE
:10283000601C12FE1301021009C41820029E63B22C
:102840000E1DFF8181FFF24440300F12FF18092353
:10285000EAAABFAAEA033F0B012DBC8080800801D1
:1028600015240E0C082A01013149041D8180808144
:10287000021901B91706110101090C0E0A14C00151
:102880002178081E21404050215E08012A4DFFFF9B
:10289000C1C10409232DE81580FCF3EFF3FC80FF90
:1028A00080EEEEEEF5FBFF9CBEB6B6883A00000067
:0400000508000131BD
:00000001FF
