:020000040800F2
:10000000600600206D010008E10600089303000867
:10001000970300081F020008E10D0008000000001F
:10002000000000000000000000000000110B0008AC
:100030002302000800000000CD0A0008FD0B0008A4
:100040008701000887010008870100088701000870
:100050008701000887010008870100088701000860
:100060008701000887010008870100088701000850
:100070008701000887010008870100088701000840
:100080008701000887010008870100088701000830
:100090008701000887010008870100088701000820
:1000A0008701000887010008870100088701000810
:1000B0008701000887010008870100088701000800
:1000C00087010008870100088701000887010008F0
:1000D00087010008870100088701000887010008E0
:1000E00087010008870100088701000800F002F876
:1000F00000F02CF80AA090E8000C82448344AAF196
:100100000107DA4501D100F021F8AFF2090EBAE893
:100110000F0013F0010F18BFFB1A43F0010318473B
:10012000E4120000F4120000002300240025002641
:10013000103A28BF78C1FBD8520728BF30C148BF4A
:100140000B6070471FB51FBD10B510BD00F031F832
:100150001146FFF7F7FF00F045FE00F04FF803B43B
:10016000FFF7F2FF03BC00F053F800000948804796
:1001700009480047FEE7FEE7FEE7FEE7FEE7FEE789
:10018000FEE7FEE7FEE7FEE704480549054A064BA1
:1001900070470000010C0008ED000008600000201E
:1001A0006006002060020020600200207047704757
:1001B0007047754600F028F8AE460500694653467C
:1001C00020F00700854618B020B5FFF7DDFFBDE839
:1001D00020404FF000064FF000074FF000084FF0AE
:1001E000000B21F00701AC46ACE8C009ACE8C0093F
:1001F000ACE8C009ACE8C0098D4670470446AFF3CF
:1002000000802046FFF7ABFF004870470000002049
:1002100001491820ABBEFEE726000200704700BF70
:10022000FEE7704700B5034603E04FF47A7000F034
:1002300005F81800A3F10103F7D100BD00EBC001E0
:10024000C9004FF0E0225161002191610521116147
:1002500000BF4FF0E021096901F480310029F8D096
:1002600004214FF0E022116170472DE9F041024670
:1002700000250026002000230024002791F803C059
:100280000CF00F0591F803C00CF0100CBCF1000F3E
:1002900003D091F802C04CEA050591F800C0BCF10A
:1002A000000F31D0146800202BE04FF0010C0CFA45
:1002B00000F3B1F800C00CEA03069E4220D183008F
:1002C0004FF00F0C0CFA03F7BC4305FA03FC4CEAA1
:1002D000040491F803C0BCF1280F06D14FF0010CC3
:1002E0000CFA00FCC2F814C00AE091F803C0BCF19B
:1002F000480F05D14FF0010C0CFA00FCC2F810C0F9
:10030000401C0828D1D31460B1F800C0BCF1FF0F25
:1003100034DD546800202EE000F1080C4FF0010895
:1003200008FA0CF3B1F800C00CEA03069E4221D192
:1003300083004FF00F0C0CFA03F7BC4305FA03FCE3
:100340004CEA040491F803C0BCF1280F05D100F178
:10035000080C08FA0CF8C2F8148091F803C0BCF13C
:10036000480F07D100F1080C4FF0010808FA0CF80B
:10037000C2F81080401C0828CED35460BDE8F0813C
:1003800041617047016170470AB1016100E041615C
:10039000704700BFFEE700BFFEE7000008B501217F
:1003A000042000F0A5FB10208DF80300C020ADF85C
:1003B000000003208DF8020069460348FFF755FF4F
:1003C00000F032FB08BD00000008014008B5012123
:1003D000402000F08DFB10208DF803006020ADF868
:1003E000000003208DF8020069460348FFF73DFF37
:1003F00000F01AFB08BD00000018014008B50121FB
:10040000102000F075FB10208DF8030042F2100060
:10041000ADF8000003208DF8020069460248FFF79E
:1004200024FF00F001FB08BD0010014008B50121C8
:10043000042000F05DFB10208DF803003020ADF8A3
:10044000000003208DF8020069460348FFF70DFF06
:1004500000F0EAFA08BD00000008014010B50446AB
:10046000002C7DDB032322460721012000F074FAD3
:1004700096A20121084600F0A2FA10219548FFF744
:1004800081FF20219348FFF77BFF40219148FFF730
:1004900079FF80218F48FFF773FF20218E48FFF7F7
:1004A00071FF40218C48FFF76BFF4FF400518B48E0
:1004B000FFF768FF10218948FFF762FFA0B200F044
:1004C000FDFA40F6B830FFF7ADFE20218148FFF776
:1004D00059FF10217F48FFF753FF80217D48FFF728
:1004E00051FF40217B48FFF74BFF40217A48FFF73F
:1004F00049FF20217848FFF743FF10217748FFF795
:1005000041FF4FF400517548FFF73AFFA0B200F0E9
:10051000D5FA40F6B830FFF785FE20216D48FFF789
:1005200031FF10216B48FFF72BFF40216948FFF78F
:1005300029FF80216748FFF723FF40216648FFF726
:1005400021FF20216448FFF71BFF4FF4005163484F
:10055000FFF718FF10216148FFF712FFA0B200E07B
:10056000A6E000F0ABFA4FF4FA60FFF75BFE102153
:100570005848FFF707FF20215648FFF701FF802169
:100580005448FFF7FFFE40215248FFF7F9FE2021B3
:100590005148FFF7F7FE40214F48FFF7F1FE1021C9
:1005A0004E48FFF7EFFE4FF400514C48FFF7E8FECE
:1005B000A0B200F083FA4FF4FA60FFF733FE202177
:1005C0004448FFF7DFFE10214248FFF7D9FE4021E3
:1005D0004048FFF7D7FE80213E48FFF7D1FE20219B
:1005E0003D48FFF7CFFE40213B48FFF7C9FE1021F1
:1005F0003A48FFF7C7FE4FF400513848FFF7C0FEF6
:10060000A0B200F05BFA40F6B830FFF70BFE102105
:100610003048FFF7B7FE20212E48FFF7B1FE8021BA
:100620002C48FFF7AFFE40212A48FFF7A9FE4021E2
:100630002948FFF7A7FE20212748FFF7A1FE4FF426
:1006400000512648FFF79EFE10212448FFF798FE30
:10065000A0B200F033FA40F6B830FFF7E3FD102106
:100660001C48FFF78DFE20211A48FFF789FE402124
:100670001848FFF785FE80211648FFF781FE2021EC
:100680001548FFF77DFE40211348FFF779FE4FF430
:1006900000511248FFF774FE10211048FFF770FE5A
:1006A000A0B200F00BFA42F21070FFF7BBFD0BE0B6
:1006B00010210848FFF764FE20210648FFF762FE7C
:1006C000614288B200F0FAF910BD00005370656510
:1006D000643A000000080140001801400010014089
:1006E000704770B500240EE00021204600F0E9F8C4
:1006F000002504E0002000F086F9681CC5B2802DBA
:10070000F8DB601CC4B2082CEEDB70BD08B501211B
:10071000082000F0EDF914208DF8030003208DF877
:1007200002004020ADF8000069460A48FFF79DFD31
:100730008020ADF8000069460648FFF796FD0122CB
:1007400040210448FFF720FE012280210148FFF7E5
:100750001BFE08BD000C014070B50546002413E0E7
:100760008020204100EA050280210E48FFF70CFEA0
:10077000012240210B48FFF707FE002240210948D3
:10078000FFF702FE601CC4B2082CE9DB0122402105
:100790000448FFF7F9FD002240210248FFF7F4FD6D
:1007A00070BD0000000C014010B5012280210948F5
:1007B000FFF7EAFD012240210648FFF7E5FD002290
:1007C00080210448FFF7E0FD002240210148FFF7A7
:1007D000DBFD10BD000C014010B500228021074850
:1007E000FFF7D2FD012240210448FFF7CDFD012291
:1007F00080210248FFF7C8FD10BD0000000C014039
:1008000070B5002406E0002500E06D1CB5F57A7F88
:10081000FBD3641CB4F57A7FF5D3FFF777FFAE20E6
:1008200000F0E1F8D52000F0DEF8802000F0DBF8E1
:10083000A82000F0D8F83F2000F0D5F8D32000F031
:10084000D2F8002000F0CFF8402000F0CCF8A12032
:1008500000F0C9F8C82000F0C6F8DA2000F0C3F8AC
:10086000122000F0C0F8812000F0BDF8CF2000F089
:10087000BAF8D92000F0B7F8F12000F0B4F8DB2086
:1008800000F0B1F8302000F0AEF8A42000F0ABF892
:10089000A62000F0A8F88D2000F0A5F8142000F0A4
:1008A000A2F8AF2000F09FF8FFF71BFF70BD10B556
:1008B0000246012000E050430B00A1F10101FAD1F2
:1008C00010BD70B505460C4645F0B00000F08BF841
:1008D000102141EA141000F086F804F00F0000F037
:1008E00082F870BD2DE9F04105460E461746721E8E
:1008F000D206110E6A1E5206100EFFF7E2FF002408
:1009000009E0A7F12001134A02EB0111085D00F094
:100910007AF8601CC4B2082CF3DB721ED206110EEA
:100920006A1E012303EB4202D0B2FFF7CAFF002484
:100930000BE0A7F12001074A02EB011204F10801C4
:10094000505C00F060F8601CC4B2082CF1DBBDE81C
:10095000F0810000140E00082DE9F047814688461A
:1009600015461E46002D06DB2B2241464846FFF762
:10097000B9FF2F4605E02D2241464846FFF7B2FF5A
:100980006F42002417E0301B411E0A20FFF78FFF43
:10099000B7FBF0F00A21B0FBF1F201FB120000F10D
:1009A000300A08EB0400401CC1B252464846FFF72B
:1009B00099FF601CC4B2B442E5DBBDE8F0872DE9C5
:1009C000F04107460E461546002407E02A5D30191F
:1009D000C1B23846FFF786FF601CC4B2285D00280C
:1009E000F4D1BDE8F08110B50446FFF7DDFE7820B4
:1009F000FFF7B2FE0020FFF7AFFE2046FFF7ACFE88
:100A0000FFF7EAFE10BD10B50446FFF7CDFE7820D3
:100A1000FFF7A2FE4020FFF79FFE2046FFF79CFE57
:100A2000FFF7DAFE10BD000000B589B001210846CD
:100A300000F04EF80121042000F05AF818208DF83B
:100A400023000420ADF8200003208DF8220008A91F
:100A50001948FFF70AFC4FF0804000F00DF9002024
:100A6000ADF81A00ADF816006320ADF81800232089
:100A7000ADF8140000208DF81C0005A94FF080404F
:100A800000F05CF901A800F04DF96020ADF8040019
:100A90000020ADF80C000120ADF806000020ADF8F4
:100AA0000A0001A94FF0804000F0ECF8012188070E
:100AB00000F0D6F809B000BD0008014010B50446AA
:100AC00021464FF0804000F037F910BD704700001C
:100AD00029B1064AD2690243044BDA6104E0034AB1
:100AE000D2698243014BDA61704700000010024076
:100AF00029B1064A92690243044B9A6104E0034A11
:100B000092698243014B9A617047000000100240D5
:100B1000704710B500F002F810BD00000CB50020C1
:100B2000019000903348006840F4803031490860FB
:100B300000BF3048006800F4003000900198401C6D
:100B40000190009818B90198B0F5A06FF1D129482B
:100B5000006800F4003010B10120009001E0002096
:100B600000900098012843D12348006840F010000D
:100B7000214908600846006820F003000860084624
:100B8000006840F0020008601A484068194948604F
:100B90000846406848600846406840F48060486005
:100BA0000846406820F47C1048600846406840F4DD
:100BB000E81048600846006840F08070086000BF98
:100BC0000C48006800F000700028F9D0094840681F
:100BD00020F00300074948600846406840F00200E2
:100BE000486000BF0348406800F00C000828F9D1B5
:100BF0000CBD0000001002400020024070470000C1
:100C000010B51348006840F001001149086008461B
:100C10004068104908400E494860084600680E497F
:100C200008400B4908600846006820F480200860EE
:100C30000846406820F4FE0048604FF41F008860BA
:100C4000FFF767FF4FF000600449086010BD000027
:100C5000001002400000FFF8FFFFF6FE08ED00E084
:100C600021B1028842F00102028004E002884FF6BE
:100C7000FE731A400280704701894FF6F8721140E6
:100C80000181704770B5002400220023058C4FF6C7
:100C9000FF6635400584028C8388848B4FF68F7500
:100CA0002C404FF6FC752C400D882C434FF6FF5519
:100CB0002A400D894FF6FF7606EA05252A434D881E
:100CC00006EA05252A43154DA84202D0144DA84234
:100CD0001DD14FF2FF752A404D894FF6FF7606EA87
:100CE00005252A434FF6FF352A408D8806EA05255B
:100CF0002A434EF6FF752B404DF6FF752B408D892C
:100D000006EA05152B43CD8906EA05152B4383809A
:100D10008483CD888587028470BD0000002C01404B
:100D2000003401400021018041808180C180018127
:100D300041818181C181704781877047002202888B
:100D40001D4B98420ED01D4B98420BD0B0F1804FF6
:100D500008D01B4B984205D01A4B984202D01A4B30
:100D6000984204D14FF68F731A404B881A43174BA1
:100D7000984207D0164B984204D04FF6FF431A40D2
:100D8000CB881A4302808B8883850B8803850A4BA6
:100D900098420BD0094B984208D00E4B984205D090
:100DA0000D4B984202D00D4B984201D10B7A03862D
:100DB0000123838270470000002C01400034014071
:100DC0000004004000080040000C004000100040FB
:100DD0000014004000400140004401400048014030
:100DE00000BFFEE7FFF70CFDFFF720FBFFF7D6FA89
:100DF000FFF7ECFAFFF702FB6420FFF72FFB03A2DB
:100E000001210846FFF7DBFD00BFFEE75370656573
:100E1000643A000000000000000000000000000034
:100E200000000000000000F8000000000000003397
:100E30003000000000100C06100C0600000000003E
:100E40000000000040C07840C0784000043F040427
:100E50003F040400007088FC08300000001820FFE8
:100E6000211E0000F008F000E018000000211C0323
:100E70001E211E0000F00888700000001E2123249F
:100E80001927211010160E000000000000000000BD
:100E900000000000000000E018040200000000074D
:100EA0001820400000020418E00000000040201854
:100EB00007000000404080F0804040000202010F27
:100EC00001020200000000F0000000000101011F0B
:100ED00001010100000000000000000080B070006F
:100EE00000000000000000000000000000010101FF
:100EF000010101010000000000000000003030008E
:100F00000000000000000000806018040060180667
:100F10000100000000E010080810E000000F1020A1
:100F200020100F00001010F8000000000020203FEB
:100F30002020000000700808088870000030282475
:100F40002221300000300888884830000018202016
:100F500020110E000000C02010F80000000704243B
:100F6000243F240000F80888880808000019212080
:100F700020110E0000E0108888180000000F1120DA
:100F800020110E0000380808C83808000000003F93
:100F9000000000000070880808887000001C2221F2
:100FA00021221C0000E010080810E000000031229F
:100FB00022110F00000000C0C0000000000000303F
:100FC0003000000000000080000000000000806091
:100FD0000000000000008040201008000001020412
:100FE00008102000404040404040400004040404F9
:100FF00004040400000810204080000000201008B5
:1010000004020100007048080808F00000000030E9
:1010100036010000C030C828E810E0000718272477
:1010200023140B000000C038E0000000203C230225
:101030000227382008F8888888700000203F202088
:1010400020110E00C03008080808380007182020BA
:101050002010080008F808080810E000203F2020B1
:1010600020100F0008F88888E8081000203F202092
:101070002320180008F88888E8081000203F200086
:1010800003000000C03008080838000007182020BE
:10109000221E020008F808000008F808203F21017D
:1010A00001213F20000808F8080800000020203F28
:1010B0002020000000000808F8080800C080808098
:1010C0007F00000008F888C028180800203F200191
:1010D0002638200008F8080000000000203F2020EB
:1010E0002020300008F8F800F8F80800203F003F02
:1010F000003F200008F830C00008F808203F20001A
:1011000007183F00E01008080810E0000F1020202A
:1011100020100F0008F808080808F000203F2101FF
:1011200001010000E01008080810E0000F18242456
:1011300038504F0008F8888888887000203F2000C9
:10114000030C30200070880808083800003820217F
:1011500021221C00180808F8080818000000203F89
:101160002000000008F808000008F808001F2020F0
:1011700020201F000878880000C8380800000738C1
:101180000E010000F80800F80008F800033C070012
:10119000073C0300081868808068180820302C037A
:1011A000032C30200838C800C83808000000203F51
:1011B0002000000010080808C83808002038262140
:1011C00020201800000000FE020202000000007F44
:1011D00040404000000C30C0000000000000000152
:1011E0000638C00000020202FE000000004040403D
:1011F0007F00000000000402020204000000000062
:1012000000000000000000000000000080808080DE
:1012100080808080000202040000000000000000C6
:10122000000000000000808080800000001924225F
:1012300022223F2008F8008080000000003F11209B
:1012400020110E000000008080800000000E1120A0
:1012500020201100000000808088F800000E11207E
:1012600020103F200000808080800000001F22228C
:1012700022221300008080F0888888180020203FF8
:10128000202000000000808080808000006B94940B
:101290009493600008F8008080800000203F2100C7
:1012A00000203F2000809898000000000020203F90
:1012B00020200000000000809898000000C080807E
:1012C000807F000008F8000080808000203F24021A
:1012D0002D302000000808F8000000000020203F0A
:1012E000202000008080808080808000203F2000BF
:1012F0003F20003F8080008080800000203F210050
:1013000000203F200000808080800000001F2020FF
:1013100020201F00808000808000000080FFA1202E
:1013200020110E000000008080808000000E11203F
:1013300020A0FF80808080008080800020203F21CE
:101340002000010000008080808080000033242481
:1013500024241900008080E0808000000000001F2D
:10136000202000008080000000808000001F2020DE
:1013700020103F20808080000080808000010E309F
:101380000806010080800080008080800F300C0300
:101390000C300F0000808000808080000020312E03
:1013A0000E312000808080000080808080818E70DF
:1013B0001806010000808080808080000021302C91
:1013C0002221300000000000807C020200000000AA
:1013D000003F404000000000FF000000000000004F
:1013E000FF0000000002027C800000000040403F3F
:1013F00000000000000601010202040400000000D9
:101400000000000014140008000000206006000026
:0414100028010008A7
:04000005080000ED02
:00000001FF
